:020000040800F2
:10000000000400204B010008790100087B01000872
:100010007D0100087F010008810100080000000048
:100020000000000000000000000000008301000844
:100030008501000800000000870100082909000868
:100040006B0100086B0100086B0100086B010008E0
:100050006B0100086B0100086B0100086B010008D0
:100060006B0100086B0100086B0100086B010008C0
:100070006B0100086B0100086B0100086B010008B0
:100080006B0100086B0100086B0100086B010008A0
:100090006B0100086B0100086B0100086B01000890
:1000A0006B0100086B0100086B0100086B01000880
:1000B0006B0100086B0100086B0100086B01000870
:1000C0006B0100086B0100086B0100086B01000860
:1000D0006B0100086B0100086B0100086B01000850
:1000E0006B0100086B0100086B0100086B01000840
:1000F0006B0100086B0100086B0100086B01000830
:100100006B0100086B0100086B0100086B0100081F
:100110006B0100086B0100086B0100086B0100080F
:100120006B0100086B0100086B0100086B010008FF
:10013000DFF810D000F01EFC0048004789010008DD
:10014000AFF3008028020020704708488047084924
:1001500081F3088807480047FEE7FEE7FEE7FEE771
:10016000FEE7FEE7FEE7FEE7FEE7FEE749010008DF
:1001700028020020310100087047FEE7FEE7FEE795
:10018000FEE770477047704700F024FB00F08BFBE0
:10019000FEE7000010B58B4C2215011B5300A04256
:1001A0002ED00DDC884940181CD0904221D09842B6
:1001B0003BD10121102000F028FA002110200DE091
:1001C000914224D0994229D0B1F5406F2DD101211F
:1001D0000C02204600F019FA00212046BDE810402C
:1001E00000F013BA0121042000F00FFA00210420CE
:1001F000F4E70121082000F008FA00210820EDE7CB
:100200000121202000F001FA00212020E6E7012151
:10021000402000F0FAF900214020DFE70121802092
:1002200000F0F3F900218020D8E710BD10B50121BE
:10023000084600F0EAF90021BDE81040012000F076
:10024000E4B9F0B5CA78002502F00F03D20601D553
:100250008A7813430A784FF00F0E12F0FF0F4FF019
:1002600001021DD0D0F800400F8802FA05F6374091
:10027000B74211D14FEA850C0EFA0CF724EA0707B2
:1002800003FA0CF43C43CF78282F02D0482F02D039
:1002900002E0466100E006616D1C082DE4D30460B5
:1002A0000C88FF2C1ED944685FF0000606F1080791
:1002B00002FA07F50F882F40AF420FD14FEA860CA4
:1002C0000EFA0CF7BC4303FA0CF73C43CF78282F07
:1002D00000D14561CF78482F00D10561761C082EEA
:1002E000E4D34460F0BD4FF6FF71018002218170BC
:1002F0000421C17070470246002092680A4200D073
:1003000001207047806880B2704702460020D268A2
:100310000A4200D001207047C06880B27047016176
:100320007047416170470AB1016170474161704790
:10033000C160704741F4803282618161826181696C
:1003400080697047214B10B51A684FF680742240BF
:1003500042EA00100843186010BD1D49C86170478B
:10036000F0B51A4D6A68440D260184B2C0F30157F6
:10037000B440C0F30343032F05D0C0020AD50320C5
:100380009840824307E0686822F0706320F0706054
:10039000686002E0A24342F0706301B123436B60E6
:1003A000F0BD10B58A0721F003040849130F21445A
:1003B0000F228C689A4094438C608A68984002436C
:1003C0008A6010BD0014014000F8FEBF000001402B
:1003D00000002042A348016841F00101016041682A
:1003E000A14A114041600168A04A114001600168C2
:1003F00021F480210160416821F4FE014160002167
:100400008160704797490A6822F480320A600A685E
:1004100022F480220A60B0F5803F07D0B0F5802F2B
:1004200003D1086840F4A02008607047086840F4D1
:100430008030F9E70246002053098A49012B0BD08E
:10044000022B0BD0D1F8241002F01F02012393409D
:100450000B4200D0012070470968F5E7096AF3E70D
:1004600018B500204FF4A06400903120FFF7E2FFA0
:100470000099491C009108B9A142F6D13120FFF73B
:10048000D9FF002800D0012018BD76490A6822F063
:10049000F80242EAC000086070477549086070477A
:1004A000704A5368084323F47C1318435060704724
:1004B0006F49086670476B4A516821F00301014398
:1004C000516070476748406800F00C007047654A0B
:1004D000516821F0F001014351607047614A516851
:1004E00021F4E0610143516070475E494A6822F49B
:1004F000605242EAC000486070475A4A0029517A67
:1005000001D0014300E08143517270475849C1F85E
:10051000D8007047534A516821F44041014351606B
:1005200070475049002281F8202081F820200128BE
:1005300002D0042802D1052081F8200070474D49DF
:100540000860704747490A6A02430A62704749498E
:1005500044390860704730B542494A6812F00C03CC
:10056000454A03D0042B01D0082B21D002604A68F1
:100570000F23424C03EA1212A35C0268DA40426085
:100580004B68072505EA1323E35C22FA03F3836033
:100590004B6805EAD323E35CDA40C2604968032371
:1005A00003EA9131231F595CB2FBF1F1016130BDC7
:1005B0004A68022302F4701203EB92424B6813F470
:1005C000803F02D04B689B0301D52D4B00E02A4BA6
:1005D0005A43CBE7234A0029516901D0014300E087
:1005E0008143516170471F4A0029916901D001433D
:1005F00000E08143916170471A4A0029D16901D016
:10060000014300E08143D1617047164A0029D16857
:1006100001D0014300E08143D1607047114A0029B5
:10062000116901D0014300E0814311617047114914
:100630004039086070470E49C86470470949C8715D
:1006400070470848416A41F0807141627047054A2D
:100650000146002092680A4200D0012070470149FB
:1006600088727047001002400000FFF8FFFFF6FE9E
:10067000000042428004424200127A00040000203E
:1006800000093D002849084328490860704770B5B3
:100690000F23C47801780122F4B1244C24684578F2
:1006A00004F4E064C4F5E064240AC4F10406E34001
:1006B0008478B5401C402C4301F1E021230181F8EE
:1006C0000034007800F01F018A404009800000F1EA
:1006D000E020C0F8002170BD01F01F0082404809F1
:1006E000800000F1E020C0F8802170BD104A114068
:1006F00001430E48001F016070470C4A121D00297B
:10070000116801D0014300E08143116070474FF050
:10071000E0210428086903D020F004000861704734
:1007200040F00400FAE700000000FA050CED00E0DC
:1007300080FFFF1F0CB50021324801910091026833
:1007400042F4803202604FF4A063026802F4003287
:100750000092019A521C0192009A12B9019A9A428F
:10076000F3D10268920333D50121009126490A682A
:1007700042F010020A600A6822F003020A600A6866
:1007800042F002020A60416841604168416041688C
:1007900041F480614160416821F47C11416041680D
:1007A00041F4E8114160016841F080710160016825
:1007B0008901FCD5416821F003014160416841F0A5
:1007C000020141604168C1F381010229FAD10CBDE7
:1007D0000091FEE70B48016841F0010101604168AA
:1007E0000A4A114041600168094A114001600168EC
:1007F00021F480210160416821F4FE014160002163
:10080000816097E700100240002002400000FFF8DE
:10081000FFFFF6FE08B501210820FFF7E4FE4FF4C4
:100820000070ADF8000003208DF8020010208DF854
:10083000030069460148FFF704FD08BD000C0140B4
:100840004FF400710648FFF76CBD10B5FFF7E2FFEB
:10085000BDE81040F4E74FF400710148FFF75FBDB9
:10086000000C01407047704717488188491C89B2C5
:100870000A22B1FBF2F302FB1312818012B9C28883
:10088000521CC2806422B1FBF2F302FB131313B9B2
:1008900003895B1C0381B1FBF2F302FB13110029F6
:1008A00000D181807047FFF7D0FF00F032F800F0F0
:1008B0000DF80548C18809B1491EC1800189002988
:1008C000F8D0491E0181F5E71800002010B54FF05F
:1008D000E02440F2CF2060610F21601700F035F86E
:1008E0000020A0610720206110BD20490A680B6824
:1008F0001844904203D90A688242FCD970470A68BA
:100900008242FCD20A688242FCD970476421484383
:10091000EBE710B54FF44070FFF7B4FE0121BDE8DE
:100920001040881E00F011B8114810B50178491C1C
:10093000C9B20170642903D100210170FFF794FF4F
:100940000A480168491C016010BD0907090E00280A
:1009500006DA00F00F0000F1E02080F8141D704767
:1009600000F1E02080F8001470470000180000201B
:1009700014000020064C074D06E0E06840F001033B
:1009800094E8070098471034AC42F6D3FFF7D4FB45
:10099000B8090008D809000802E008C8121F08C1F9
:1009A000002AFAD170477047002001E001C1121FF0
:1009B000002AFBD170470000D80900080000002081
:1009C0001800000098090008F0090008180000202D
:1009D00010020000A8090008020406080000000038
:1009E00001020304010203040607080900000000D5
:040000050800014BA3
:00000001FF
